S01800004150495F4175746F6D6174697A61646F722E7333373F
S3150800000000100020490800087D6100087D6100088D
S315080000107D6100087D6100087D6100087D6100083A
S315080000207D6100087D6100087D6100087D6100082A
S315080000307D6100087D6100087D6100087D6100081A
S315080000407D6100087D6100087D6100087D6100080A
S315080000508D040008E51F00087D6100087D61000821
S315080000607D6100087D6100087D6100087D610008EA
S315080000707D6100087D6100087D6100087D610008DA
S315080000807D6100087D6100087D6100087D610008CA
S315080000907D6100087D610008B51300087D610008D0
S315080000A07D6100087D6100085110000829100008CC
S315080000B07D6100087D6100087D6100087D6100089A
S315080000C07D6100087D6100087D6100087D6100088A
S315080000D07D6100087D6100087D6100087D6100087A
S315080000E07D6100087D6100087D6100087D6100086A
S315080000F07D6100088F6900087D6100087D61000840
S315080001007D6100087D6100087D6100087D61000849
S315080001107D6100087D6100087D6100087D61000839
S315080001207D6100087D6100087D6100087D61000829
S315080001307D6100087D6100087D6100087D61000819
S315080001407D6100087D6100087D6100087D61000809
S315080001507D6100087D610008897B00087D610008D3
S315080001607D6100087D6100087D6100087D610008E9
S31508000170013800D0FCE770470348044B834202D09D
S31508000180034B03B118477047DC150020DC15002027
S3150800019000000000064B0749C91A891048BF0131FB
S315080001A0491003D0044B0BB101481847704700BFEC
S315080001B0DC150020DC1500200000000010B5064CF8
S315080001C0237843B9FFF7D8FF044B13B10448AFF3BC
S315080001D000800123237010BD601400200000000079
S315080001E06088000808B5054B1BB105490548AFF3FB
S315080001F00080BDE80840FFF7CDBF00BF0000000043
S315080002000010002060880008A3F5803A704700BFF8
S31508000210174B002B08BF134B9D46FFF7F5FF002130
S315080002208B460F461348144A121A06F017FC0E4B53
S31508000230002B00D098470D4B002B00D09847002084
S31508000240002104000D000D48002802D00C48AFF329
S31508000250008005F011FE2000290005F036FF05F0A4
S31508000260F9FD00BF000008000000000000000000C3
S3150800027000100020001000207C1400200000000060
S315080002800000000010B5044605F08FFF012800D0D5
S3150800029010BD074B9C4206D0064B9C42F8D1064B34
S315080002A001221A70F4E7054B01221A70F4E700BF21
S315080002B0107C0008F87B00086114002062140020F6
S315080002C010B586B0164807F03AFB0023019302934F
S315080002D0039304930593134C01A9204604F0D8FD13
S315080002E0236B012B02D0104B01221A630D4C04F527
S315080002F000520E4B536104F580529361042005F0B9
S3150800030017F9204604F096FD094B012209490A48C7
S31508000310006801F0F1FB01F0C7FD06B010BD00BF93
S31508000320F084000800800450009004507700770796
S315080003306504000850100020B815002010B5434B7E
S3150800034093F85930042B0ED8DFE803F00313223153
S31508000350420003787E2B07D03D4B01223D493E489B
S31508000360006801F0C9FB10BD384B012283F85920FB
S31508000370F2E70378354981F83130022381F859309C
S31508000380334B012230313448006801F0B5FBEAE707
S3150800039003782E4981F83230032381F859302C4BE3
S315080003A0012230312C48006801F0A6FBDBE7037810
S315080003B0264981F83330042381F8593091F83120E1
S315080003C0234B043A34312448006801F095FBCAE708
S315080003D01E4C002384F85930621C94F8311004F13D
S315080003E0310005F0C9FD207020B9E378482B09D003
S315080003F0432B26D0164B012216491748006801F0F0
S315080004007BFBB0E7637A84F82E30013B042BF1D8E6
S31508000410DFE803F003070B0F1300104805F056FF3B
S31508000420E8E70F4805F05CFFE4E70C4805F053FFE2
S31508000430E0E70B4805F054FFDCE7084805F046FFFF
S31508000440D8E7024B1A7983F82F20D3E7201000202B
S315080004506504000850100020B8150020287C000804
S31508000460407C000808B50248FFF768FF08BD00BFD2
S315080004705010002008B50A460023014602480068C5
S3150800048001F010FC08BD00BFB815002008B50C4ADD
S3150800049093695269134007D00A490A6801320A600B
S315080004A0094A5361094A1360064B1B68B3F5167F60
S315080004B000D008BD05F0EEFD024B00221A60F8E7F1
S315080004C0008004501810002000A004501C100020C2
S315080004D008B505F0F6FC0A4B1B781BB9094B1B78C7
S315080004E03BB908BD064B00221A700C2005F0AFFD7B
S315080004F0F4E7044B00221A70022005F0A8FDF0E785
S31508000500621400206114002008B5034805F046FE71
S31508000510024805F043FE08BD107C0008F87B000879
S3150800052008B5034805F0CDFE024805F0CAFE08BD29
S31508000530407C0008287C000818B1034A1060002097
S3150800054070472520704700BF7C10002010B5044C6A
S315080005500449206801F0E8F92068FFF7EDFF10BDAF
S31508000560B815002094140020014B1868704700BF86
S315080005707C10002008B5044807F0E1F905F0AFFD46
S3150800058000F0A6F808BD00BF0085000808B50248B7
S3150800059007F0D5F908BD00BF008500082DE9F04130
S315080005A080460E46082904D106F1090500273C466F
S315080005B00AE040F26311214805F0EBFDF4E75B2100
S315080005C0082000F07FFA0134AC4233D2052C1BD840
S315080005D001A353F824F000BFBF050008F105000881
S315080005E025060008F9050008FD05000801060008AB
S315080005F0F3B20433D9B2E3E78021E1E70021DFE76C
S315080006007B1C3946DFB2DBE7B31DA3420CD0F31DD2
S31508000610A3420BD006F10803A34209D0A31F18F87A
S315080006200310CDE7D121CBE75A21C9E75A21C7E7FD
S315080006305D21C5E70020BDE8F08100BF587C0008B1
S3150800064000B583B0002300930193FFF78DFF114B8C
S31508000650186001238DF8003090F8363093B10020E9
S315080006600C4B1B6893F8351002290FD003290FD1BC
S3150800067005F075FD019008216846FFF78FFF03B066
S315080006805DF804FB006806F033F9E9E70321EFE7B4
S315080006900021EDE7E410002000B583B0044B1B8869
S315080006A0ADF8043001A800F0F9FA03B05DF804FBD0
S315080006B0C87C000800B583B0044B1B88ADF804302D
S315080006C001A800F0B7FA03B05DF804FBC87C00087F
S315080006D02DE9F04F97B04D4D09AC2E1D0FCE0FC426
S315080006E03368236001AC05F118060FCE0FC496E8EF
S315080006F00F0084E80F00464807F021F9454807F03F
S315080007001EF901268DF8096000248DF80840424B31
S315080007100B9301AB0D93414F09A9384603F08CFAA8
S31508000720B5F838B0ADF838B0324604210EA800F056
S3150800073039FAB5F83CA0ADF83CA0224631460FA8D8
S3150800074000F030FAB5F84090ADF8409032460421F2
S3150800075010A800F027FAB5F80080ADF844803246B4
S31508000760042111A800F01EFA2D4D2E4BC5F8F834B9
S315080007704FF00213C5F8F434A3F58033C5F8FC34FA
S315080007801C23C5F8E4344FF4487005F09DF9FFF7CB
S3150800079083FF142005F098F9FFF78CFF232005F056
S315080007A093F9FFF779FFB921384606F08CF8FFF779
S315080007B081FFADF848B02246214612A800F0F2F9AA
S315080007C0ADF84CA02246214613A800F0EBF9ADF887
S315080007D050903246214614A800F0E4F9ADF854804A
S315080007E03246214615A800F0DDF9384602F0FEFF2C
S315080007F0C5F8E444C5F8F844C5F8F444C5F8FC441B
S31508000800044807F0A1F817B0BDE8F08FC87C0008C7
S315080008100085000804850008E070720000000A5090
S3150800082000C003500200030008B50448044A121A1F
S315080008309210044905F0A3FC08BD00BF700100082A
S31508000840700100087C14002008B5154B83F30A884C
S3150800085000F030F8FFF7E8FF124A0AE0106851681E
S3150800086050F8230041F82300013391688B42F5D3F1
S315080008700C320D4B9A4201D20023F6E70B4A08E0E8
S315080008801168002041F82300013351688B42F7D3E1
S315080008900832074B9A4201D20023F6E7FFF7B8FC65
S315080008A0000000206888000874880008748800081A
S315080008B07488000870B5134B134A9A60D3F88820D9
S315080008C042F47002C3F88820104A4FF480419166BA
S315080008D00F4D05F500544FF0FF3222660D4A626649
S315080008E00222C3F8D020BFF34F8FBFF36F8F0020CB
S315080008F004F080FE4FF44036E660002004F018FE4F
S315080009002E6170BD00ED00E0000000080090005068
S31508000910008000447FFF7F01014B1860704700BFCD
S31508000920C015002008B5064B1860064B1B6F03F070
S315080009300703032B00D008BD06F0CCF8FBE700BF81
S31508000940C81500200080005030B587B005460468F9
S3150800095023798DF80C3063798DF80D30214806F02F
S31508000960EEFF0022012103A800F01CF90DF10B018E
S3150800097003A800F003FA9DF80B3083F001032370F7
S31508000980A379022B02D0002007B030BD4FF0FF3309
S31508000990059304930095144B002205A903A800F0BB
S315080009A0D7FA059BB3F1FF3F0DD000950E4B0122F8
S315080009B004A903A800F01CFA0028E4D07E210B48FD
S315080009C005F0E7FBDFE70095074B042204A903A817
S315080009D000F00EFA0028D6D06F21044805F0D9FB9E
S315080009E0D1E700BF00850008B96100080C7D000842
S315080009F010B582B0002401942A4806F0A0FF8DF8AD
S31508000A00004003238DF8013001220421684600F0D6
S31508000A10C9F8254B0122C3F8442401A9052006F08C
S31508000A2087FF00283BD1214BD3F8F02042F0010282
S31508000A30C3F8F020D3F8FC2042F08072C3F8FC20FB
S31508000A40A3F55D431A4A1A60019B03F5D52303F201
S31508000A50FC43DB08174AA2FB03239B0A013B164A01
S31508000A6013610223C2F8F0304FF48073C2F80433DE
S31508000A704FF06043114AC3F8B02F114AC3F8802ECD
S31508000A80D3F8002E42F48072C3F8002EFF2283F8B2
S31508000A902020D3F8002E22F48072C3F8002E02B06C
S31508000AA010BD00BF0085000800D0035000ED00E02F
S31508000AB0FF03004017916502000004E055CEACC55F
S31508000AC0090001004FF06043D3F8803E13F0010F90
S31508000AD001D1112070470E4AD2F8FC3043F08073DA
S31508000AE0C2F8FC304FF06043D3F8002E4FF0010CEB
S31508000AF00CFA00FC42EA0C02C3F8002E53F8203028
S31508000B00002BE8D04FF0604303F820100020704710
S31508000B1000ED00E010B504460FE00123834024EA07
S31508000B2003040F2814D800EB40020E4B03EB820394
S31508000B305A6812B19968C0B2904794B1234600200A
S31508000B401F28EAD813F0010FE7D101305B08F7E751
S31508000B50103800EB40039B00B033024A13440433B9
S31508000B60E6E710BDE810002008B50D4806F0E7FED8
S31508000B701A2004F0EDFC28B91B2004F0E9FC40B962
S31508000B80002008BD1A2004F035FD1A2004F0D0FC18
S31508000B90F2E71B2004F02EFD1B2004F0C9FCEFE74A
S31508000BA0008500082DE9F04170B10C461546064649
S31508000BB00F292FD803787BB1022B26D0032B27D0F9
S31508000BC0012B07D0002309E09321184805F0E1FA24
S31508000BD0222717E07F2301E040F2FF737278D340A3
S31508000BE013F0010F16D0124BD3F81073C7B906F0DD
S31508000BF07FFE80462A462146304603F003FE4046DD
S31508000C0006F071FE3846BDE8F08140F2FF33E5E7AD
S31508000C103F23E3E79721054805F0BBFA2127F1E7CB
S31508000C209B21024805F0B5FA0227EBE7747D000818
S31508000C3000C0035038B550B1044603787BB1022B87
S31508000C401FD0032B20D0012B07D0002309E0E42175
S31508000C50114805F09EFA222012E07F2301E040F2B7
S31508000C60FF736278D34013F0010F0FD006F040FEF1
S31508000C700546204606F06CF8284606F034FE0020A5
S31508000C8038BD40F2FF33ECE73F23EAE7E8210248A4
S31508000C9005F07FFA2120F3E7747D000838B550B1D6
S31508000CA0044603787BB1022B1FD0032B20D0012BDF
S31508000CB007D0002309E0FC21124805F06AFA222031
S31508000CC012E07F2301E040F2FF736278D34013F00D
S31508000CD0010F0FD006F00CFE0546204603F0A2FCD5
S31508000CE0284606F000FE002038BD40F2FF33ECE748
S31508000CF03F23EAE74FF48071024805F04AFA2120BB
S31508000D00F2E700BF747D000870B560B10C46064670
S31508000D1049B1037883B1022B21D0032B22D0012BB2
S31508000D2008D000230AE040F22D11134805F031FAE5
S31508000D30222013E07F2301E040F2FF737278D3404C
S31508000D4013F0010F10D006F0D3FD0546304603F028
S31508000D50D7FC2070284606F0C6FD002070BD40F27C
S31508000D60FF33EBE73F23E9E740F23111024805F08C
S31508000D7010FA2120F2E700BF747D000870B560B153
S31508000D800C46064649B1037883B1022B21D0032BC2
S31508000D9022D0012B08D000230AE04FF4A371134890
S31508000DA005F0F7F9222013E07F2301E040F2FF73F4
S31508000DB07278D34013F0010F10D006F099FD05465E
S31508000DC0304603F065FC2070284606F08CFD0020AE
S31508000DD070BD40F2FF33EBE73F23E9E74FF4A57117
S31508000DE0024805F0D6F92120F2E700BF747D000815
S31508000DF02DE9F04170B10C4615461F46064649B125
S31508000E00037883B1022B45D0032B46D0012B08D09B
S31508000E1000220AE04FF4E071334805F0BAF92220BF
S31508000E2036E07F2201E040F2FF727178CA4012F084
S31508000E30010F01D1FF2B32D1022D01D9042D35D155
S31508000E4006F056FD80463378FF2B36D12368B3F17A
S31508000E50FF3F39D02268B2F1FF3F40D0234B02EB67
S31508000E60420203EB82025760226802EB420203EB5E
S31508000E708203069A9A603378FF2B05D022680123ED
S31508000E8093401B4AC2F82434404606F02CFD002045
S31508000E90BDE8F08140F2FF32C7E73F22C5E74FF4CD
S31508000EA0E271114805F075F92120F1E74FF4E47174
S31508000EB00D4805F06EF92120EAE72A4621683046F2
S31508000EC003F020FD2060C1E73378FF2BC2D1094B20
S31508000ED0D3F82414707805F034FD2060BAE740464C
S31508000EE006F001FD2D20D3E7747D0008E8100020E8
S31508000EF000D0035000C0035038B5B0F1FF3F19D0F9
S31508000F0004460F2816DC002814DB06F0F1FC012342
S31508000F10A3400C4AC2F82034C2F824340A4B04EB26
S31508000F20440203EB820200255560956006F0DBFC5F
S31508000F30284638BD40F2F111044805F02AF9212067
S31508000F40F7E700BF00E00350E8100020747D0008B2
S31508000F502DE9F04170B10C4690461E46054649B14A
S31508000F60017881B1022940D0032941D0012908D04E
S31508000F7000230AE04FF40B71284805F00AF92220ED
S31508000F8031E07F2301E040F2FF736A78D34013F023
S31508000F90010F01D1FF292DD106F0AAFC07462B78AF
S31508000FA0FF2B2ED12268B2F1FF3F31D01C4B02EB4A
S31508000FB0420203EB8202C2F8B860226802EB4202E0
S31508000FC003EB8203069AC3F8BC202B78FF2B06D0C6
S31508000FD02268103201239340124AC2F82434384654
S31508000FE006F081FC0020BDE8F08140F2FF33CCE733
S31508000FF03F23CAE740F23121084805F0CAF8212004
S31508001000F1E742462168284603F096FD2060C9E7C5
S31508001010384606F068FC2D20E5E700BF747D000819
S31508001020E810002000D0035008B5084BD3F8240474
S31508001030D3F82024104000F0553020F0502003F556
S315080010400053C3F82004FFF765FD08BD00C0035030
S3150800105008B5084BD3F82404D3F82024104000F030
S31508001060AA3020F0A02003F50053C3F82004FFF7A8
S3150800107051FD08BD00C0035010B582B004460A48A9
S3150800108006F05DFC23788DF8043063788DF805301A
S31508001090A278B2FA82F2520904210DEB0100FFF799
S315080010A081FD002002B010BD00850008F0B585B0AE
S315080010B00C4694469DF83410664A1278002A00F0C9
S315080010C0BD800546BCF1070F00F2BA800A9A002ACD
S315080010D000F0B8800B9A002A00F0B6800E9AB2F596
S315080010E0006F00F3B38001285BD05B4A02EB0C1259
S315080010F0127B002A00F0AC80002200920192029234
S315080011000392564A02EB4C1E002C4FD14FEA4C165E
S3150800111000209051CEF80400CEF80800CEF80C0056
S315080011209EF8020040F010008EF802009EF80300B8
S3150800113040F030008EF8030021B9C1B241F0030136
S315080011408EF8031000930E9B013B444A4FEA4C105D
S3150800115002EB4C11165A63F30E1616520A9B8B6055
S315080011600B9B4B60CB789DF83C2062F38303CB70D6
S31508001170012D36D0109B002B56D0374A4FEA0C115A
S3150800118002EB0C1310985050119A5A6000249C6078
S315080011905D7372466946604602F024FE204605B035
S315080011A0F0BD0C9A002AA0D12D48F8E72B4F4FEA3C
S315080011B04C1607EB4C120020B85150609060D06076
S315080011C0907840F010009070D07840F00300D0700E
S315080011D00029B7D107EB4C12C1B241F03001D170EA
S315080011E0B0E70E460A7B42F001020A73D2B242F019
S315080011F002020A73CA68042161F39F02F26006F1CB
S31508001200100796E80F0087E80F00F2696FF00301F0
S3150800121061F39F02F2610C9B7361012CAAD10B9AB0
S31508001220B2610C9A7260A5E7002DA6D10B4B03EBB1
S315080012304C139A786FF304129A709EE70948AEE742
S315080012400748ACE70648AAE70548A8E70448A6E71A
S315080012500548A4E76314002050130020501200200C
S31508001260018000F0028000F0078000F0134B1B7825
S31508001270FBB110B50446F0B106F03AFB0023072B84
S3150800128013D80F4A02EB0312127B0AB10133F6E7B1
S3150800129023600B4A190102EB031301241C73002473
S315080012A0545006F020FB204602E006F01CFB0548D9
S315080012B010BD054870470548FAE700BF63140020CB
S315080012C050130020048000F0028000F0018000F036
S315080012D000B583B0134B1B68019300238DF80430C7
S315080012E006F006FB104B1B7833B90F4B01221A7018
S315080012F006F0F9FA002309E006F0F5FA0B480EE0C5
S315080013000B4A02EB0312002111730133072BF7DD99
S3150800131008238DF8073001A802F01AFD002003B053
S315080013205DF804FBD47D000863140020038000F0F8
S315080013305013002008B50A4B1B785BB107280BD859
S31508001340084B03EB00131B7B43B1002102F0EAFCB8
S31508001350002008BD0448FCE70448FAE70448F8E713
S315080013606314002050130020028000F0018000F072
S31508001370078000F008B50A4B1B785BB107280BD825
S31508001380084B03EB00131B7B43B1012102F0CAFC97
S31508001390002008BD0448FCE70448FAE70448F8E7D3
S315080013A06314002050130020028000F0018000F032
S315080013B0078000F0F8B5194B1F6D5B6D1F4002D40E
S315080013C00125002402E0FEE701346D00072C24D82D
S315080013D03D42F9D0124B1D652301124AD358002B02
S315080013E0F2D002EB0416B1680131B160726820468A
S315080013F0984780F00100C0B2737B012BE4D1002826
S31508001400E2D0094B03EB44131A7B6FF341021A73BC
S315080014101A7F6FF341021A77D6E7F8BD0000045029
S3150800142000200450501300205012002001460023CB
S31508001430032B08D8054A52F8230090F821208A423F
S3150800144002D00133F4E70020704700BFD013002014
S3150800145038B504460D4606F04BFAA3889BB2D3B1BD
S3150800146063889BB203EB83039B00083323442B60FA
S3150800147063889BB20133E28893FBF2F102FB1133D6
S315080014809BB26380A3889BB2013B9BB2A38006F004
S315080014902AFA002038BD2B6006F025FA0048F9E73D
S315080014A00B7000F038B504460D4606F021FAA388FD
S315080014B09BB25BB163889BB203EB83039B00083343
S315080014C01C442C6006F00FFA002038BD2B6006F08D
S315080014D00AFA0148F9E700BF0B7000F030B139B1DC
S315080014E042B1B2F5006F07D800207047034870472D
S315080014F0034870470248704701487047027000F079
S31508001500037000F0154B1B7853B9032B05D8144A02
S31508001510002142F823100133F7E7104B01221A7015
S315080015200023032B06D80E4A52F82320824212D0F3
S315080015300133F6E7002300E00133032B09D8084AF4
S3150800154052F82320002AF7D1054A42F82300002042
S315080015507047044870470020704700BF6414002095
S31508001560D0130020027000F010B50446FFF7B0FE55
S31508001570002104F10800FFF779FE30B9002104F1D3
S315080015800C00FFF773FE10B910BD0248FCE70148CE
S31508001590FAE700BF0E7000F0F8B504460E46154689
S315080015A006F0A6F9A3889BB2E28893422FD2238835
S315080015B09BB203EB83039B000833E2183168776814
S315080015C0D6F808E0D6F80CC0E1505760C2F808E033
S315080015D0C2F80CC03169116123889BB203EB8303FF
S315080015E09B00083323442B6023889BB20133E2888F
S315080015F093FBF2F102FB11339BB22380A3889BB2C3
S3150800160001339BB2A38006F06EF90020F8BD0023D3
S315080016102B6006F068F90148F8E700BF0A7000F089
S3150800162070B586B004460D46012380F8303090F830
S315080016303630ABB906682436204604F0D9FE6B6806
S3150800164004940C4A03920022029201930123009308
S3150800165033462A686169E06804F0AFFE06B070BDDB
S31508001660022B02D106683C36E6E7002380F83030C4
S31508001670F4E700BF611B00082DE9F04188B0044675
S315080016800D46012380F8313090F8363043BB0668A2
S315080016903C3606F02DF9074604F13C080DF11F010A
S315080016A0404605F0E1FF10B99DF81F300BBB3846E0
S315080016B006F019F90127E765204604F099FE6B68DC
S315080016C004940F4A039200220292019300972B6812
S315080016D032462169A06804F055FE08B0BDE8F081DD
S315080016E0022B02D106684436D3E7002380F831304E
S315080016F0F3E7404605F088FF204605F0C5FAD6E729
S315080017000517000870B584B0144603A9D06AFFF718
S31508001710C9FE0546204605F0D3FA01460023019383
S31508001720009323461B4A04F13C0006F0C6F91A4BFF
S315080017309D421ED0039BFBB1039B00221A619A604F
S3150800174006F0D6F80546039AD66826B15368126895
S3150800175000212046B04703A9E06AFFF779FEE06A50
S3150800176083889BB273B9002384F83130284606F083
S31508001770BAF8012004B070BD40F2A531074804F05C
S3150800178008FDD9E703A9FFF78DFE03992046FFF761
S3150800179073FFEBE7016D00080B7000F0D87D0008B9
S315080017A02DE9F84304460D461646FFF797FE804690
S315080017B010B14046BDE8F883162003F0E3FE07465D
S315080017C0E36A9B889BB23BB194F8323023B9002F69
S315080017D0F6D0FFF7EFFDF3E794F8363083B92368C0
S315080017E09F6907F0020717B9204604F048FF01234E
S315080017F084F8343094F83630B3B1022B1DD129E081
S31508001800022B04D123689F6C07F00207EBE740F62A
S315080018109711164804F0BDFC4746E5E715F8011B85
S31508001820206805F07AF84E4606F1FF39002EF5D104
S3150800183023689B6913F0200FFAD0002FB9D12046F0
S3150800184004F04DFFB846B4E715F8011B206805F00B
S3150800185034F84E4606F1FF39002EF5D123689A6C06
S3150800186042F220039343F9D1E7E700BFD87D000889
S31508001870A0B110B5044690F832303BB194F8323036
S315080018800133DBB284F83230002010BD04F062FE6A
S315080018900028F3D1A068FFF74DFDEFE70048704731
S315080018A0027000F0C8B110B5044690F83230B3B1F2
S315080018B090F83230DBB2012B07D094F83230013B76
S315080018C0DBB284F83230002010BD04F043FE002855
S315080018D0F3D1A068FFF74EFDEFE7024870470248CC
S315080018E0F2E700BF027000F0057000F030B585B071
S315080018F00446437F8DF80C3090F821308DF80D3072
S31508001900029300250095074B042202A903A8FFF7B6
S315080019106FFAA576257602236376204604F00BFF38
S3150800192005B030BD8B650008F0B589B006460D4692
S315080019300DF1040C684C0FCCACE80F0094E80700D6
S315080019408CE80700002E00F0C2803446002D00F017
S31508001950C08064220021304605F080F8304604F045
S3150800196059FD3046FFF7CEFD064690B92B7D84F823
S3150800197035302B682360002384F836302B7B23719F
S315080019800123E3656B6823662A68544B9A4203D0A1
S31508001990534E304609B0F0BD524B6362524B236139
S315080019A04FF4802363612A6AE969204604F04AFDF8
S315080019B06B680393EB89ADF814302B8AADF81230B7
S315080019C0AB7C8DF81030EB7C8DF8163005238DF83E
S315080019D01130464805F0B3FF636A986805F0AFFF13
S315080019E000238DF8043001A9286802F0B1FD2A7B8E
S315080019F03F4B03EB42121421C2F89817297AA87AAA
S31508001A002A7B41EA004103EB4212C2F8B0176A7A10
S31508001A10E87A297B42EA004203EB4113C3F8A82778
S31508001A202946204604F0F9FC06460028B1D10121D2
S31508001A30204604F01BFD06460028AAD105F058FFEB
S31508001A4007462B7D032B1AD0022B37D02B6803F5BC
S31508001A5000534FF0FF329A642B7D032B32D00421BA
S31508001A60286802F025FD2B684FF440625A6120462B
S31508001A70FFF77AFD0646384605F035FF89E72B7BE2
S31508001A801B4A02EB431341F29871022058502B6807
S31508001A9003F580530421D965E97D287E2B7B41EA2D
S31508001AA00041BD3302EB43135960697DA87D2B7B4A
S31508001AB041EA0041BD335B01D150C7E72046FFF735
S31508001AC015FFC3E70521286802F0F2FCCBE7094EAB
S31508001AD05FE7034E5DE700BF387E000800C005508B
S31508001AE0037000F00885000802000400008500085D
S31508001AF000C00350027000F02DE9F04186B004469C
S31508001B000F4615461E46FFF7E9FC804618B14046C3
S31508001B1006B0BDE8F08101970295039504960F4B30
S31508001B2005936A4601A9A06AFFF736FD8046002894
S31508001B30EDD194F83030002BE9D1204604F058FD59
S31508001B4000992046FFF76CFD94F83530032BDED05C
S31508001B5000232376204604F0EEFDD8E7017000F056
S31508001B6070B582B0144601A9906AFFF79BFC05463A
S31508001B70204605F089F8474B9D4255D0019B9BB1FD
S31508001B8094F83630B3B92268926C12F4007F11D0FB
S31508001B90019B414A1A6100229A60236803F50053A3
S31508001BA04FF400729A641FE040F2D1213B4804F0DA
S31508001BB0F0FAE5E783B92268926C12F4807F0BD0BD
S31508001BC0019B374A1A6100229A60236803F500537D
S31508001BD04FF480729A6407E0022B28D0022B37D084
S31508001BE0019B00221A619A6005F082FE054601995A
S31508001BF0CE6836B14A688B68D31A0A6809692046DE
S31508001C00B04701A9A06AFFF723FCA06A83889BB2A4
S31508001C10002B2ED001A9FFF745FC01992046FFF7B6
S31508001C20FFFC284605F05FFE012002B070BD226861
S31508001C30D26C12F4007FD1D0019B174A1A61002298
S31508001C409A60236803F500534FF40072DA64CBE711
S31508001C502368DB6C13F4807FC2D0019B104A1A619B
S31508001C6000229A60236803F500534FF48072DA6401
S31508001C70BAE701232376204604F05DFD002384F8A5
S31508001C80303094F83530032BCBD0204604F0D6FC00
S31508001C90C7E700BF0B7000F00D7000F0D87D000894
S31508001CA00C7000F02DE9F04186B004460F46154643
S31508001CB01E46FFF713FC8046D0B901970295039597
S31508001CC004961D4B059394F83630ABB923689B6987
S31508001CD003F0020313B9204604F0D1FC6A4601A9B1
S31508001CE0E06AFFF759FC804610B994F8313083B1A1
S31508001CF0404606B0BDE8F081022B04D123689B6CF0
S31508001D0003F00203E6E740F6AB210C4804F041FA7B
S31508001D10E1E705F0EDFD0546E36A9B889BB21BB932
S31508001D20284605F0E0FDE3E700992046FFF7A4FC06
S31508001D30012384F83430F3E7017000F0D87D0008F9
S31508001D401C4B98422AD010B5044603F580439842A6
S31508001D5010D003F5804398420CD003F5804398428F
S31508001D6008D003F58043984204D040F2D2211248A5
S31508001D7004F00FFA114B9C4213D003F580439C42A2
S31508001D8012D003F580439C4211D003F580439C4250
S31508001D9001D0002010BD4FF6FF70FBE74FF0FF3073
S31508001DA070474FF6FF70F5E74FF6FF70F2E74FF60C
S31508001DB0FF70EFE700800450747E000800C00450EE
S31508001DC038B504460D46FFF7BBFFA84205D3236B7B
S31508001DD013F0010F07D0E56138BD40F2BC41054854
S31508001DE004F0D7F9F3E740F2BE41024804F0D1F90E
S31508001DF0F1E700BF747E000870B504460E46154626
S31508001E00FFF79EFFA84207D3236B13F0010F09D0F3
S31508001E1004EB4614A56670BD4FF45071044804F0EF
S31508001E20B8F9F1E740F24231014804F0B2F9EFE7B8
S31508001E30747E000800B9704770B5054605F058FD70
S31508001E400646144C626A144B1B689D422CBF5219F5
S31508001E50D21892B200212046FFF7CEFF04F50052B1
S31508001E601023536104F58054A361304605F03BFD09
S31508001E7005E00A4A136923F00403136130BF084BCF
S31508001E801B78002BF5D0064B00221A70054B102242
S31508001E909A6170BD00C00450E013002000ED00E018
S31508001EA06514002000E0045030B589B0002404947D
S31508001EB005940694079401218DF810100094019456
S31508001EC002948DF80C4002238DF80630252000F088
S31508001ED0DDFC254D6A462146284602F0A1F94FF653
S31508001EE0FF712846FFF76CFFADF8124004A91E489B
S31508001EF002F024F94FF4806000F0EEFC1B4A1060F3
S31508001F00BDF812300133B0FBF3F010609BB2ADF8A8
S31508001F101230B3F5806F02D2154B9842E6D80020EE
S31508001F2000F0DAFC134BB3FBF0F0104B19680024F1
S31508001F30A0FB0101104BC018104A4FF0000341F1F5
S31508001F40000103F0F7FD0E4B18600E4B1C700E4B8C
S31508001F5010229A61052003F04DFB052003F0E8FAEC
S31508001F60204609B030BD00BF00C00450E41300206D
S31508001F7080841E0000B0710B20A1070040420F00AC
S31508001F80E01300206514002000E0045038B5114B1A
S31508001F901968A0FB0101104BC018104A4FF0000346
S31508001FA041F1000103F0C6FD04460D4607E04FF671
S31508001FB0E850FFF73FFF0A4BE41865F100054FF6B6
S31508001FC0E9539C4275F10003F1D2A0B2FFF732FF44
S31508001FD0002038BDE413002020A1070040420F006E
S31508001FE01802FFFF054B5B6913F0100F05D0044B71
S31508001FF010225A61034B01221A70704700C0045020
S3150800200000E0045065140020024B4FF480321A6732
S31508002010704700BF0090005070B504460D4616463E
S315080020201F2906D856B104F580540123AB40236016
S3150800203070BD9121034804F0ACF8F3E704F50054A9
S31508002040F3E700BFCC7E000838B505460C46194BA9
S31508002050D3F8200100F0070006281DD8DFE800F0B5
S31508002060240408100C14180004F00EFD05231CE0C7
S3150800207004F04AFD032318E004F050FD072314E09A
S3150800208004F03EFD022310E004F0FEFC06230CE0FB
S3150800209004F03AFD042308E041F29121064804F0D1
S315080020A078F80023184600E0012305B1286004B13A
S315080020B0236038BD00800050247F000838B50546E7
S315080020C00C46184BD3F8283103F00703013B052BC0
S315080020D020D8DFE803F003131B0F0B1704F0D4FC1A
S315080020E0052305B1286004B1236038BD04F0CCFC93
S315080020F00623F6E704F012FD0723F2E704F004FDD1
S315080021000323EEE704F000FD0423EAE704F0F8FCF5
S315080021100223E6E741F29901034804F03AF800235E
S315080021201846DEE700800050247F000830B583B0EB
S3150800213005460C4600230193174BD3F8203203F0CB
S315080021400703042B19D8DFE803F01F03090E130051
S31508002150002101A8FFF7B2FF112316E004F0DEFC08
S315080021600190072311E005F0AFFB01900A230CE06C
S3150800217004F01EFD0190092307E041F256010748C5
S3150800218004F007F8002300E001230DB1019A2A6044
S3150800219004B1236003B030BD00800050247F0008DE
S315080021A070B582B006460D4600230193134BD3F84B
S315080021B0804104F00304022C1BD0032C14D0012CFC
S315080021C006D041F2E6310E4803F0E3FF002404E0AE
S315080021D0002101A8FFF738FF0F240EB1019B3360D9
S315080021E005B12C6002B070BD04F098FC019007247C
S315080021F0F3E704F085FC0190EFE700BF008000508C
S31508002200247F000838B505460C46124BD3F8400122
S3150800221000F0030003280FD8DFE800F01602060ACC
S3150800222005F052FB0A2310E004F0C2FC09230CE077
S3150800223005F04DFB0B2308E041F2C321064803F0E5
S31508002240A8FF0023184600E0012305B1286004B161
S31508002250236038BD00800050247F000838B5054645
S315080022600C46154BD3F8000200F00700042815D8D1
S31508002270DFE800F01C03070B0F0005F025FB0A2317
S3150800228015E004F095FC092311E005F020FB0B236B
S315080022900DE004F01FFC800A0E2308E041F2A44179
S315080022A0064803F076FF0023184600E0012305B12F
S315080022B0286004B1236038BD00800050247F0008E0
S315080022C038B505460C46154BD3F8080200F007004A
S315080022D0042815D8DFE800F01C03070B0F0005F0EB
S315080022E0F3FA0A2315E004F063FC092311E005F06C
S315080022F0EEFA0B230DE004F0EDFB800A0E2308E04E
S3150800230041F2DC41064803F044FF0023184600E08A
S31508002310012305B1286004B1236038BD0080005050
S31508002320247F000838B505460C46124BD3F8400200
S3150800233000F0030003280FD8DFE800F01602060AAB
S3150800234005F0C2FA0A2310E004F032FC09230CE077
S3150800235005F0BDFA0B2308E041F26341064803F095
S3150800236018FF0023184600E0012305B1286004B1D0
S31508002370236038BD00800050247F000838B5054624
S315080023800C46114BD3F8503203F00303022B17D037
S31508002390032B09D0012B0FD041F2C9010B4803F0DA
S315080023A0F8FE0023184602E005F091FA0B2305B162
S315080023B0286004B1236038BD05F086FA0A23F6E7DB
S315080023C004F0F6FB0923F2E700800050247F00089A
S315080023D030B583B005460C4600230193174BD3F856
S315080023E0603203F00703013B032B1FD8DFE803F035
S315080023F0020E1914002101A8FFF726FE0F230DB1BE
S31508002400019A2A6004B1236003B030BD002101A8F7
S31508002410FFF7F8FE1023F2E704F080FB019007238C
S31508002420EDE704F06DFB01900223E8E741F2FD01B8
S31508002430034803F0AEFE0023E1E700BF008000502A
S31508002440247F000830B583B005460C460023019367
S315080024500E4BD3F8703203F00303012B08D0022B7E
S315080024600CD041F25B110A4803F093FE002306E004
S31508002470002101A8FFF7C6FE102300E014230DB1C2
S31508002480019A2A6004B1236003B030BD0080005071
S31508002490247F000838B505460C460E4BD3F8903213
S315080024A003F00303012B09D0022B0BD104F036FBF2
S315080024B0072305B1286004B1236038BD04F020FB6A
S315080024C00223F6E741F28511034803F062FE002372
S315080024D01846EEE700800050247F000838B5054608
S315080024E00C46124BD3F8600100F0030003280FD8FE
S315080024F0DFE800F01602060A05F0E6F90A2310E0FE
S3150800250004F056FB09230CE005F0E1F90B2308E07B
S3150800251041F2F521064803F03CFE0023184600E088
S31508002520012305B1286004B1236038BD008000503E
S31508002530247F000838B505460C46124BD3F800012F
S3150800254000F0030003280FD8DFE800F01602060A99
S3150800255004F0DAFA032310E004F02AFB09230CE05E
S3150800256004F0D8FA082308E041F24A21064803F0A5
S3150800257010FE0023184600E0012305B1286004B1C7
S31508002580236038BD00800050247F000808B5344B0E
S3150800259098424DD010D9334B984251D031D9324B4D
S315080025A0984251D003F5740303F5105398424FD15E
S315080025B02E4BD3F898001DE02D4B984232D00BD9FC
S315080025C02C4B984231D003F5371303F5D86398425C
S315080025D03ED1264B986F0DE0274B98420ED008D96E
S315080025E0264B98420AD0264B984231D11F4B586E3B
S315080025F000E000B908BD234B984229D11B4B986DC2
S31508002600F8E7214B984217D0204B984203D1174B35
S31508002610D3F88C00EEE71E4B984219D1134BD3F82A
S315080026208400E7E7114B186FE4E7104B586FE1E7B2
S315080026300E4BD3F88000DDE70C4BD3F88800D9E7BA
S315080026400A4BD3F89000D5E7084BD3F89400D1E7A6
S3150800265041F2BB310F4803F09CFD0020CAE700BFDA
S3150800266080BA8C01007E56030090D0030080E00FEC
S31508002670405DC6000024F40080841E0000093D0069
S31508002680C0CF6A0040420F0080D54302006CDC02CE
S315080026900048E801247F0008F8B505460F461446A9
S315080026A005F01DF9064645B12B685C403C405C4088
S315080026B02C60304605F00EF9F8BD4FF49C710248BF
S315080026C003F067FDF0E700BFCC7E000808B5234B92
S315080026D0984233D01DD8A3F5B703A3F5586398429B
S315080026E028D006D91E4B984230D11E4BD3F8BC00D1
S315080026F00EE01D4B984206D009D91C4B984202D0D1
S315080027001B4B984222D1174BD3F8A00000E0E8B93A
S3150800271008BD184B984215D0174B984203D1114B58
S31508002720D3F8D000F4E7154B98420FD10D4BD3F8E8
S31508002730C800EDE70B4BD3F8B800E9E7094BD3F827
S31508002740C000E5E7074BD3F8CC00E1E741F2DE111C
S315080027500B4803F01EFD0020DAE700BFC0EA21019E
S315080027600024F4000080E00F40420F0080841E0021
S3150800277000093D000048E801005A620280BA8C014F
S31508002780247F000810B5B0F5207F39D01DD8B0F5E4
S31508002790007F2FD039D810B1B0F5C07F13D11C4BAC
S315080027A01C6F230BC4F3033413F00E0F2ED048F21C
S315080027B08803E34013F0010F28D14FF4227115481E
S315080027C003F0E7FC22E0002420E0B0F5607F0FD19B
S315080027D00F4BD3F88030C3F3011413F0200F15D034
S315080027E0032C13D04FF426710A4803F0D2FC0DE0EF
S315080027F000240BE0064BD3F89040C4F3046405E0CC
S31508002800034B1C6FC4F3802400E00024601C10BD39
S3150800281000800050247F000838B505460C46174B43
S315080028204FF480329A660020FFF7ACFF05FB00F0F4
S31508002830134BDA6902F4803241F67131D9635B6869
S3150800284023F440136CB90F49884207D800210B437B
S315080028500B494B600AB10022CA6338BD4FF4801198
S31508002860F5E7002C07DD0849884201D80021EEE784
S315080028704FF48011EBE74FF44011E8E70090005061
S3150800288000000350005A6202002D310138B5044693
S315080028900D46430905D0012B16D0022B0DD10B4846
S315080028A005E040F235310A4803F073FC00202A4659
S315080028B004F01F01FFF7B0FB38BD40F2433104486E
S315080028C003F067FC0020F2E70248F0E76880005052
S315080028D0247F00086480005010B582B0002301935D
S315080028E00093B0F5807F00F20781B0F5807F00F293
S315080028F0D081DFE810F05601CE01CE01CE01CE011F
S31508002900CE01CE01CE01CE01CE01CE01CE01CE0141
S31508002910CE01CE01CE01CE01CE01CE01CE01CE0131
S31508002920CE01CE01CE01CE01CE01CE01CE01CE0121
S31508002930CE01CE01CE0156018E0156018E01A601A9
S31508002940A601A601A601A6018E01AB0147016801F1
S31508002950B50147018E018E018E01CE01CE01CE0151
S31508002960CE01CE01CE01CE0168018E018E018E0107
S31508002970C9012C018E01CE01CE01CE01CE01CE01B8
S31508002980CE01CE01CE01CE01CE01CE01CE0173011C
S31508002990A601560156015601BA0147014701BF0172
S315080029A08301600117011701CE01CE01CE01CE01C8
S315080029B0CE01CE01CE01CE01CE01CE01CE01CE0191
S315080029C0CE01CE01CE01CE01CE01CE01CE01CE0181
S315080029D0CE01CE01CE01CE01CE01CE01CE01CE0171
S315080029E0CE01CE01CE01CE01CE01CE01CE01CE0161
S315080029F0CE01CE01CE018801CE01CE01CE01CE0197
S31508002A00CE01CE01CE01CE01CE01CE01CE01CE0140
S31508002A10CE01CE01CE01CE01CE01CE01CE01CE0130
S31508002A20CE01CE01CE01CE01CE01CE01CE01CE0120
S31508002A30CE01CE01CE01CE01CE01CE01CE01CE0110
S31508002A40CE01CE01CE01CE01CE01CE01CE01CE0100
S31508002A50CE01CE01CE01CE01CE01CE01CE01CE01F0
S31508002A60CE01CE01CE01CE01CE01CE01CE01CE01E0
S31508002A70CE01CE01CE01CE01CE01CE01CE01CE01D0
S31508002A80CE01CE01CE01CE01CE01CE01CE01CE01C0
S31508002A90CE01CE01CE01CE01CE01CE01CE01CE01B0
S31508002AA0CE01CE01CE01CE01CE01CE01CE01CE01A0
S31508002AB0CE01CE01CE01CE01CE01CE01CE01CE0190
S31508002AC0CE01CE01CE01CE01CE01CE01CE01CE0180
S31508002AD0CE01CE01CE01CE01CE01CE01CE01CE0170
S31508002AE0CE01CE01CE01CE01CE01CE01CE01CE0160
S31508002AF0CE01CE01CE01B001B0F5F06F00F0C48072
S31508002B0015D9B0F5206F00F0B58061D9B0F5306FF2
S31508002B1000F0B5806FD9B0F5386F54D0B0F5406F76
S31508002B2040F0B780002101A8FFF7C8FA6EE0B0F5BB
S31508002B30607F79D010D9B0F5B06F00F0878034D9AE
S31508002B40B0F5D06F00F08C80B0F5E06F38D1002179
S31508002B5001A8FFF7E7FB59E0B0F5007F0AD103F0BB
S31508002B6099FF04464FF40070FFF70CFEB4FBF0F42F
S31508002B7001944BE012D9B0F5207F4AD0B0F5407FDA
S31508002B8040F0878003F0A6FF04464FF42070FFF755
S31508002B90F9FDB4FBF0F46408019437E0B0F5C07FA2
S31508002BA077D103F097FF019030E0B0F5806F48D0F9
S31508002BB0B0F5A06F6DD1002101A8FFF7B7FA25E09F
S31508002BC0B0F5C06F65D1002101A8FFF71BFB1DE01A
S31508002BD0B0F5106F49D0B0F5186F04D1002101A8DF
S31508002BE0FFF7CCFB12E0B0F5086F52D1002101A81F
S31508002BF0FFF7A0FC0AE0B0F5286F4AD1002101A82A
S31508002C00FFF720FC02E003F045FF0190019802B0AF
S31508002C1010BD03F05FFF04464FF42070FFF7B2FDC6
S31508002C20B4FBF0F40194F1E70021684603F0E1FDF6
S31508002C30009C4FF46070FFF7A5FDB4FBF0F4019417
S31508002C40E4E7002101A8FFF7FFF9DFE7002101A863
S31508002C50FFF7A6FADAE7002101A803F0D5FDD5E7C4
S31508002C60002101A8FFF7FAFAD0E7002101A8FFF72B
S31508002C7027FBCBE7002101A8FFF7AAFBC6E700213F
S31508002C8001A8FFF707FCC1E7002101A8FFF726FC0A
S31508002C90BCE740F2A441024803F07BFAB6E700BF5E
S31508002CA0247F000808B58020FFF716FE034B9842DC
S31508002CB003D8034B4FF480321A6708BD005A6202E4
S31508002CC000A0005000B583B000230193B0F5807FC3
S31508002CD000F0BA8011D9B0F5086F00F0BF8044D96A
S31508002CE0B0F5286F00F0CE806CD9B0F5306F7CD186
S31508002CF001A90020FFF7CEFB50E0802876D82428CB
S31508002D0074D324385C2871D8DFE800F04F4F4F4F52
S31508002D104F704470A35770707070707070707070D8
S31508002D2070A370707039B270707070707070707057
S31508002D3070707070B74F7070706A707062BCAD7CDE
S31508002D407C70707070707070707070707070707069
S31508002D507070707070707070707070707070707065
S31508002D6070707070707070708100B0F5C06F70D040
S31508002D700AD9B0F5E06F7BD0B0F5F06F1AD101A98A
S31508002D800020FFF7ABFB09E0B0F5A06F6BD0B0F5FC
S31508002D90B06F07D101A90020FFF702FA019803B026
S31508002DA05DF804FBB0F5806F20D101A90020FFF77C
S31508002DB04BF9F3E7B0F5D06F18D101A90020FFF75A
S31508002DC04DFAEBE7B0F5186F57D0B0F5206F04D180
S31508002DD001A90020FFF7FCFAE0E7B0F5106F05D16E
S31508002DE001A90020FFF76CFAD8E705D240F289510D
S31508002DF0274803F0CEF9D1E7B0F5386F29D0B0F5FA
S31508002E00406FF3D101A90020FFF758F9C6E7214B17
S31508002E101B6F03F00703013B032B0FD8DFE803F012
S31508002E200B02050805230193B8E703230193B5E7C9
S31508002E3008230193B2E702230193AFE740F2D64194
S31508002E40134803F0A6F9A9E701A9002003F0DCFC62
S31508002E50A4E701A90020FFF7D5F99FE701A90020FB
S31508002E60FFF768FB9AE701A90020FFF75FF995E7E6
S31508002E7001A90020FFF756FA90E701A90020FFF7FD
S31508002E807DFA8BE701A90020FFF7DCFA86E700BF89
S31508002E90247F000800800050094B596E03F58053C3
S31508002EA04FF480325A66074A536A23F00103536285
S31508002EB011F4803F03D1044B4FF480325A667047B1
S31508002EC00080005000C0075000A0005038B50446E6
S31508002ED003680F2B00F2C18063680F2B00F2C380D2
S31508002EE0A3680F2B00F2C580237B0F2B00F2C78047
S31508002EF0637B0F2B00F2C980A37B3F2B00F2CB80AC
S31508002F00E37B3F2B00F2CD802369032B00F2CF80B1
S31508002F106369032B00F2D180E369032B00F2D380A7
S31508002F208020FFF7CFFE032800F0F3807F4B4FF495
S31508002F3080125A667E4B45F60E02C3F8802003F5CA
S31508002F4080524FF0A061916203F500534FF480322E
S31508002F509A62774B9B6D13F4803FFAD1744B9B6D45
S31508002F6013F0804FFAD1226863681B0543EA0263AF
S31508002F70227B43EA0243627B43EA0233A27B43EAAB
S31508002F808213E27B13436A4D2B61AB6903F000435E
S31508002F90226943EA8263626943EA0263227E43EA5C
S31508002FA00243627E43EA0223A27E1343AB614FF4D7
S31508002FB000624FF440615F48FFF76EFB2B6A23F00F
S31508002FC00F03E269002A40F0848011460B43E17E34
S31508002FD043EA81031A43564B1A62E369002B7AD1F6
S31508002FE0534A916A544B0B4094F8201043EA411314
S31508002FF094F8211043EA011394F8241043EAC10314
S3150800300043F4803393624A4B9A6D4C4B9343FAD1FF
S31508003010474A02F580514FF080738B62136923F497
S315080030207003A06843EA005313614FF000438B61B5
S3150800303094F822301BB9424B4FF080729A6294F88A
S315080030402330002B5ED13E4B4FF480329A62384BC8
S315080030509B6D13F0804FFAD154E040F68A31394817
S3150800306003F097F838E740F68D31364803F091F8C3
S3150800307036E74FF43961334803F08BF834E740F606
S315080030809331304803F085F832E740F696312D48FB
S3150800309003F07FF830E740F699312A4803F079F8CB
S315080030A02EE740F69C31274803F073F82CE740F6E4
S315080030B09F31244803F06DF82AE740F6A2312148EB
S315080030C003F067F828E740F6A5311E4803F061F8D3
S315080030D026E708217AE7022B1CD0154A916A164B77
S315080030E00B4094F8201043EA411394F8221043EA5F
S315080030F0016394F8241043EAC10394F8231043EAC1
S315080031000143936294F825301BB1094B0E4AC3F864
S31508003110802038BD064B00221A619A614FF4085286
S315080031204FF47F410948FFF7B7FAD6E700900050F9
S315080031300040005A3840005AC7FFFEFE030001004F
S315080031400060005A247F0008F1A7FFFF3440005AA8
S31508003150014B93F900007047CE150020014B1880EB
S31508003160704700BFCC15002010B5B0F5207F65D09C
S3150800317039D8B0F5007F4ED071D810B1B0F5C07F00
S315080031806DD14C1E012C0BD9102904D8374BCB40D6
S3150800319013F0010F04D140F2CB21354802F0F9FFB4
S315080031A003F050FB03F060FBFEF72EFF314A136F66
S315080031B023F4704343EA0433136703F08BFC2E4B66
S315080031C0D3F8843013F0100FF9D12B4BD3F88410B1
S315080031D0C1F38111C1F1020103F03BFB00F062F873
S315080031E0FFF760FD10BDB0F5607F38D14C1E012C8D
S315080031F001D9042909D11F4AD2F8803023F03003B7
S3150800320043EA0413C2F88030ECE740F2F921184883
S3150800321002F0BFFFEFE74C1E1F2C09D8154AD2F85B
S31508003220903023F0F85343EA0463C2F89030D9E7A4
S315080032304FF443710E4802F0ACFFEFE74C1E012C29
S3150800324007D80C4A136F23F4806343EA8423136771
S31508003250C8E740F21231064802F09BFFF1E74FF447
S315080032604671034802F095FFBCE700BF1001010054
S31508003270247F0008008000500040005008B5012156
S31508003280022000F031F94FF42070FFF77BFA044B67
S31508003290187003F0D7FA03F0E7FAFEF7B5FE08BD93
S315080032A06614002008B54FF4C070FFF715FB054BF0
S315080032B0984205D902214FF42070FFF755FF08BD43
S315080032C00121F8E780F0FA0210B5044603F002FC83
S315080032D00F4BD3F8843013F0100FF9D10C4BD3F8F9
S315080032E08410C1F38111C1F1020103F0B2FA012180
S315080032F0002000F055F924B1FFF7D4FFFFF7D2FC00
S3150800330010BD044B19784FF42070FFF72DFFF5E731
S3150800331000400050661400202DE9F0410546FFF7ED
S3150800332035F90446431E13F1030F39D8444B4FF4BD
S31508003330C0225A6603F598335B68012B36D0802085
S31508003340FFF7C0FC05283AD024F040743D4B9D4257
S315080033503CD03D4B9D423CD003F096FB0746854248
S315080033603AD83A4BDB6813F0060FFAD1374BD3F845
S3150800337008809C6004F4F8149E6806F4F816B442B3
S315080033802FD1B44233D0314BC3F808803D46802054
S31508003390FFF798FC05282ED0BD424CD9BDE8F08130
S315080033A040F6E2112A4802F0F4FEBFE7294B012253
S315080033B05A60294B5B6813F0020FFAD1BFE703F096
S315080033C041FA03F051FAFEF71FFEBDE744F0007418
S315080033D0C2E744F08074BFE70121284600F0E0F810
S315080033E0BFE740F62A211A4802F0D3FEC9E7284665
S315080033F0FDF792FACBE703F06DFB0446854214D33A
S31508003400164BD3F8843013F0100FF9D1134BD3F8B9
S315080034108410C1F38111C1F10201204603F019FAA3
S31508003420FFF740FFFFF73EFCB6E740F63B210848AA
S3150800343002F0AFFEE4E70121002000F0B1F8ADE7A5
S315080034400090005040420F0080841E00000001508A
S31508003450247F000800E0015000C0015000400050E1
S3150800346038B50546FFF732F90446431E13F1030F34
S315080034700FD80E4B4FF400225A6624F040740C4ABB
S3150800348095420CD00B4A95420CD04FF0B44294604A
S3150800349038BD40F68671084802F07BFEE9E744F03D
S315080034A00074F2E744F08074EFE700BF0090005024
S315080034B040420F0080841E00247F0008044A536F90
S315080034C023F44073417843EA01235367704700BFEA
S315080034D000400050034AD36E23F0300301790B43B2
S315080034E0D366704700400050F8B50446294BD3F818
S315080034F0843013F0100FF9D1264BD3F88430C3F378
S3150800350081139C423FD003F0C5FA0646012C27D00A
S3150800351004F0E5F905461F4F07F500534FF0007212
S315080035205A66204603F0A8F9621E4FF4806393405A
S315080035303B67184B5B6E13F0007F1FD1154BD3F812
S31508003540843013F0200F19D1124BD3F8843013F0BE
S31508003550200FEED040F2A7710F4802F01AFEE8E7F6
S315080035600E4B984204D80121304603F072F9CFE792
S3150800357040F28F71084802F00CFEF4E7284604F082
S31508003580A9F9022C00D0F8BD0021304603F061F9F4
S31508003590F9E700BF004000507C7F0008005A62022D
S315080035A010B50C46034650B1094A127812B1094AB9
S315080035B0934208D921460220FFF796FF10BD03F073
S315080035C069FA0346F0E721460120FFF78DFFF5E784
S315080035D0E8130020005A620208B50278034B1A70F5
S315080035E001210020FFF7DCFF08BD00BFE81300201B
S315080035F038B52F4B4FF000425A6603F50B235C6C27
S3150800360004F001044AF6CD321A64E8B9294B5B6B1B
S3150800361013F00103FAD1274A556815F0010539D088
S3150800362002F50052012151601A462249096B11F030
S31508003630010F04D120498A4201D80132F5E71E4913
S315080036408A422FD81D4625E000231A4A126B12F02B
S31508003650080F04D0184A934201D80133F5E7164AF1
S31508003660934221D8134B03F500522021916203F5AA
S31508003670805301225A60002300E001330D4A926A02
S3150800368012F0200F02D10C4A9342F6D90A4A934205
S315080036900CD8002514B1074B084A1A6403F0EDF854
S315080036A0284638BD0725F5E70725F3E70725F1E797
S315080036B000900050004009503F420F003254FFFF6F
S315080036C010B51A4B4FF000425A6603F50B235C6C93
S315080036D004F001044AF6CD321A6443785B0043F0DD
S315080036E00103134AD363134B5B6B13F00B0FFAD129
S315080036F0104A536823F4F873817843EA0113536038
S31508003700C178437943EA012393600179837943EACF
S31508003710012313610078FFF76BFF14B1054B064AC6
S315080037201A6403F0AAF8012010BD00BF00900050EB
S3150800373000400050004009503254FFFF10B50F28D2
S3150800374025D8164B5C6E03F580534FF000425A6637
S3150800375003F50B235A6C02F001024AF6CD311964BF
S315080037600F4B5B6B13F0800FFAD10D490B6A23F0F0
S315080037700F0303430B620AB10A4A0A64002C03DBEF
S31508003780094B4FF000425A6603F077F810BD40F631
S315080037906861064802F0FDFC0F20D2E70080005061
S315080037A0004009503254FFFF00A000507C7F0008FB
S315080037B008B50B4B98420DD00A4B98420CD003F52E
S315080037C0804398420AD040F27931074802F0E1FC7A
S315080037D0002008BD5620FCE75720FAE75820F8E7EE
S315080037E00000015B00000A50D47F000810B50446AB
S315080037F003F044F8042307E004F5805304221A6111
S3150800380004F500531A610B46591E002BF4D12023E8
S3150800381023610023E360A36041F202026261A361AF
S315080038204FF4A0226262E3612362A362E3626363E8
S31508003830236504F500520249D164236310BD00BF15
S31508003840FF3F0D0338B504460D46194B98420BD079
S31508003850184B984208D003F58043984204D040F2AA
S315080038606911154802F095FCF5B104F5805301225B
S315080038705A6005F00F02636DC3F30B03002BFAD1F0
S31508003880A263636D13F07803FBD115F0010F00D026
S31508003890012315F0040F01D043F00203A26C02F0D5
S315080038A003029A42FAD138BD204602F0E7FFFAE74A
S315080038B00000015B00000A50D47F0008F8B50446F2
S315080038C00D4617468AB36F4B9C420BD06E4B9C42F3
S315080038D008D003F580439C4204D040F22A216B4865
S315080038E002F057FC3DB3A36813F0010F52D0BD4256
S315080038F028D3666806F00106B5FBF7F5013DFF2DEE
S3150800390026D8002E44D0636D13F0280FFBD1A36C84
S3150800391013F0030F29D1A36C13F0010F36D1A36C52
S3150800392013F0020F1AD0062720E040F22721574845
S3150800393002F02FFCC7E72046FFF73AFFFEF7CCFF59
S315080039400546D0E74FF40D71504802F022FCD0E747
S315080039504FF40F714D4802F01CFCD2E740F24921A2
S315080039604A4802F016FC002700E00527204602F028
S3150800397085FF236923F07F4343EA05632361002E0D
S3150800398043D039462046FFF75DFF3EE00927EDE7BD
S315080039900027EEE76368012B0FD1A36803F0E00365
S315080039A0402B41D00FD9602B4DD0802B5ED107EB31
S315080039B04703AB4253D8012311E04FF4177133483C
S315080039C002F0E7FBE9E733B1202B4FD1B7EBD50F70
S315080039D023D8082303E0B7EB151F17D810236D016A
S315080039E007FB03F3B5FBF3F5203DEE00284BB3EBDD
S315080039F0C50F41D3264A3240636D13F0010FFBD140
S31508003A002263636D13F0010FFBD1F8BD4FF42171EA
S31508003A101E4802F0BEFB1023E1E740F289211B484D
S31508003A2002F0B7FB0823DAE71A4BA3FB0523B7EB2B
S31508003A30930F01D80623D2E740F28E21134802F0ED
S31508003A40A8FB0623CBE7B7EB950F01D80423C6E7F7
S31508003A5040F293210D4802F09CFB0423BFE74FF484
S31508003A6026710A4802F095FB0123B8E740F29E2129
S31508003A70064802F08EFBC8E740F2A921034802F087
S31508003A8088FBB7E70000015B00000A50D47F0008F6
S31508003A90F8FF7F00ABAAAAAA70B504460D460E69C0
S31508003AA0436823B1636DC3F30B03002BFAD1204699
S31508003AB0FFF79CFE236923F087036A7B1343AA7BDF
S31508003AC0134343F0800323611EB3236923F0F803ED
S31508003AD02A69117F43EAC113117943EA4113517ADE
S31508003AE043EA011311780B43D27B43EA821323611D
S31508003AF0E36823F0F04323F470232A6951690B43E2
S31508003B0091690B43117B43EA8123527B43EAC23313
S31508003B10E360A36823F00303EA7B134343F001033E
S31508003B20A3603EB3A3682A69528802F4C0421343CD
S31508003B30A360A3682A69527943EA8223A360636A69
S31508003B4023F4772323F4EE6329698A79120102F0B4
S31508003B5070021343CA79120202F4E06213430A7A26
S31508003B60120302F4E04213434A7F120402F470225D
S31508003B7013436362636923F00F032A7B134363616C
S31508003B80D6B12B695B89A3612B695A7B42B1264A58
S31508003B90944220D0254B9C4223D0254B9C4227D0CB
S31508003BA02B69DA7B42B1204A944228D01F4B9C42AB
S31508003BB02BD01F4B9C422FD0AA6869682046FFF776
S31508003BC07DFE29782046FFF73DFEA36CDB4313F400
S31508003BD0405FFAD170BD9B7B03F00F03154A53660D
S31508003BE0D8E72B699B7B03F00F03124A1367D4E7C8
S31508003BF02B699B7B03F00F030E4AD367D0E71B7C28
S31508003C0003F00F030B4A1366D0E72B691B7C03F0FE
S31508003C100F03084AD366CCE72B691B7C03F00F0316
S31508003C20044A9367C8E700BF0000015B00000A501A
S31508003C3000400A500090035038B505460C46274BFD
S31508003C4098420AD0264B984207D003F580439842FB
S31508003C5003D0E221234802F09CFA74B1637BDBB1FE
S31508003C60A268214B9A420DD823690BB1DB7B73B945
S31508003C7021462846FFF710FF38BDE421194802F00F
S31508003C8088FAEBE7E621174802F083FAECE7E92120
S31508003C90144802F07EFAEBE7A268144B9A4217D84A
S31508003CA02369002BE4D01A7F002AE1D0A2681049C4
S31508003CB08A4202D9597F0429DAD90D498A4202D89B
S31508003CC05B7F042BD4D8F321064802F062FACFE7CB
S31508003CD0EC21044802F05DFAE2E700BF0000015B50
S31508003CE000000A50D47F0008002D31018096980004
S31508003CF03F4B4C0070B504460D4616461F2906D89C
S31508003D0056B104F580540123AB40236070BD912160
S31508003D10034802F03EFAF3E704F50054F3E700BF60
S31508003D20CC7E000838B504460D46072806DC85F023
S31508003D30010221460448FFF7DDFF38BD7721034815
S31508003D4002F027FAF3E700BF40000450308000086D
S31508003D5010B50446002832D023781B0633F0F853F2
S31508003D6032D1E3780F2B34D801212020FEF78EFDBF
S31508003D7001212120FEF78AFD184B01225A6022787C
S31508003D8012069A606178A27842EA01429A61FF2295
S31508003D909A6200229A631A644FF000425A6503F544
S31508003DA000534FF0FF321A65162001F023FCE17824
S31508003DB0162001F02DFC162001F0BAFB10BD91214A
S31508003DC0074802F0E6F9C7E79221054802F0E1F94B
S31508003DD0C7E79521024802F0DCF9C5E70000045060
S31508003DE030800008F8B505460C461746C3B20126CA
S31508003DF09E40072854DC002C57D0236823F47C13F4
S31508003E0023F00F03002B55D1A37A1B0433F4403358
S31508003E1055D1E37A1B0533F4801355D1237B5B0513
S31508003E2033F4001355D12D4A02F500531E65216857
S31508003E30AB0003F1A04303F588235960637B05EBC8
S31508003E40450102EB01110B66A07AE37A1B0543EAEA
S31508003E500043207B43EA4053CB6527F003070F67EF
S31508003E6003F046FD1E4B5E65237A0BB11C4B1E64A0
S31508003E70637A0BB11A4B9E632379A27942EA03420D
S31508003E80164B03F500518A616579E27942EA0542E3
S31508003E9003F58054A2614E639E6403F024FDF8BDC9
S31508003EA0DE21104802F075F9A5E7DF210D4802F07A
S31508003EB070F9A2E7E2210B4802F06BF9A4E7E721C3
S31508003EC0084802F066F9A4E7E921064802F061F914
S31508003ED0A4E7EB21034802F05CF9A4E700000450CC
S31508003EE0001004503080000808B5322827D8DFE8CB
S31508003EF000F01B2C262626262626262626262426B7
S31508003F002626262626262626262626262626262643
S31508003F102626261A1C1E2026262626262626262657
S31508003F20262626262200012008BD0220FCE70420BA
S31508003F30FAE70520F8E70620F6E70720F4E7B621B2
S31508003F40034802F026F90020EEE70320ECE700BF5D
S31508003F508880000810B50C460C282AD00CD80128F1
S31508003F600ED101290CD002290AD049B140F2071115
S31508003F70174802F00EF903E0242803D8212803D2B3
S31508003F80204610BD3228FBD1042C0DD801A353F8C6
S31508003F9024F000BF813F0008813F0008813F0008E8
S31508003FA0813F0008813F0008F621094802F0F1F830
S31508003FB0E6E7022907D0032907D04FF48B71044896
S31508003FC002F0E7F8DCE70024DAE70124D8E700BFC7
S31508003FD08880000870B50546C2F3062602F0070475
S31508003FE081B90B2808D844EA062242F4402206354D
S31508003FF0104B43F8252070BD4FF4FC710E4802F0B3
S31508004000C8F8F0E703280ED821463046FFF7A2FF86
S3150800401004463046FFF768FF44EA00241235054B8C
S3150800402043F82540E7E740F2FD11034802F0B1F8EE
S31508004030EAE700BF008003508880000870B505468F
S315080040400E461446B2F5805F09D224F0030303F145
S31508004050A04303F560330CB13EB91D6070BD4FF443
S315080040600B71034802F095F8EFE72D021D60F5E79E
S31508004070888000080F4B984213D003F58043984276
S3150800408011D003F5804398420FD003F58043984238
S315080040900DD003F58043984201D0002070470120D7
S315080040A070470120704701207047012070470120A2
S315080040B0704700BF0080045070B50C4615461E4672
S315080040C01A4A904219D01A4B984220D003F58043D9
S315080040D098421ED003F5804398421CD003F58043CE
S315080040E0984208D08F21134802F053F84FF0FF305A
S315080040F0002803DA0AE00420FAE700206EB100EB94
S31508004100400004EB400080000B4B1D5070BD0120A1
S31508004110F4E70220F2E70320F0E72D0200EB400067
S3150800412004EB4004A400044B1D51EFE70080045043
S3150800413000C00450E08000085481035038B5044696
S315080041400D46FFF797FF002853D0204602F0C7FB1D
S3150800415004F5005301221A63236B13F00203FBD103
S3150800416069882A79120242EA8142A97A0A43697859
S31508004170002943D040210A43E97A002940D080210A
S315080041800A43297B00293DD020210A43697B00295F
S315080041903AD010210A43A97B002937D008210A43BF
S315080041A0E97B002934D04FF400610A43A97989B321
S315080041B04FF480310A43E97971B34FF400310A4369
S315080041C0626004F58052012111632A780AB9022235
S315080041D0E26000226262297A6A7A42EA8102697991
S315080041E001B110231343A3602B780BB10123E360BD
S315080041F038BDB421094801F0CCFFA6E71946BAE74D
S315080042001946BDE71946C0E71946C3E71946C6E782
S315080042101946CAE71946CDE71946D0E7E0800008EF
S31508004220F8B505460F461646FFF724FF00283FD087
S31508004230022F43D8284602F052FB05F50053012207
S315080042401A632C6B14F00204FBD1B379F279002AB5
S315080042503AD04FF480121343727A002A36D01022CD
S315080042601343F27A43EAC243FA1C5201AB50337A3B
S3150800427073BBFB1C5B01EA58EA5005F58053012223
S315080042801A63327873781B0643EA8263F27843EA44
S315080042900233327943EA8223727943EA0223B27AF5
S315080042A002B104242343033705EB47156B60F8BDB9
S315080042B04FF486710E4801F06CFFB9E740F20D1114
S315080042C00B4801F066FFB5E72246C4E72246C7E772
S315080042D01346AA58317B42EA4142EA50337B013BF6
S315080042E018BF0123B27839462846FFF7E5FEC4E72A
S315080042F0E0800008064B984204D000F580508023E1
S31508004300C3657047A3F51033C3F8D411F5E700BFAA
S3150800431000C00550F8B506460D461C4617465AB164
S3150800432085B1402C45D013D8CCB1202C57D1B7EB4A
S31508004330D50F37D8082316E040F255112E4801F05C
S3150800434028FFEDE74FF42070FEF7C6FA0546E8E7C2
S31508004350602C44D1B7EB950F3AD8042303E0B7EBAA
S31508004360151F18D8102307FB03F3590801EB45114D
S31508004370B1FBF3F12039CD00204BB3EBC10F34D399
S315080043801E4B2B4006F500526021916006F58052BF
S315080043909460F361F8BD40F28711174801F0F9FE01
S315080043A01023E0E74FF4C671134801F0F2FE082324
S315080043B0D9E7134BA3FB0523B7EB930F01D80623C5
S315080043C0D1E740F291110C4801F0E3FE0623CAE753
S315080043D04FF4CB71084801F0DCFE0423C3E74FF421
S315080043E0CE71054801F0D5FED4E740F2B311024874
S315080043F001F0CFFEC4E700BF38810008F8FF7F0050
S31508004400ABAAAAAA2DE9F84381460D4617461E46C9
S31508004410254B99420CD8244C2C40A7B9202E38D0CD
S31508004420402E3BD056B140254FF0000801230EE040
S315080044304FF4F6711D4801F0ACFEECE710254FF07D
S315080044400008012303E080254FF00008012304F546
S31508004450807403FB04F40026224633464846314658
S3150800446001F068FB0746224633464846314601F0C6
S3150800447061FB05FB07F705FB03FC08FB02CCA5FB64
S31508004480020122463346614401F054FB3844BDE834
S31508004490F88320254FF000080123D8E780254FF040
S315080044A000080323D3E700BFF8FF7F003881000820
S315080044B038B504460D460B4B984204D04FF4397173
S315080044C0094801F066FE04F5805301225A60EB4361
S315080044D0934003F00A036361656115B904F5005456
S315080044E0626038BD00C005503881000810B5044622
S315080044F0144B984204D040F25E41134801F049FE3D
S3150800450004F5805301225A6040F6AA6363610023CA
S31508004510A360E36541F20502E2602361E361E364B7
S3150800452004F5005209499164A365064B9C4204D0E0
S3150800453004F500540123636010BD002323656365F9
S31508004540F6E700BF00C0055038810008FFFF0100EC
S3150800455038B505460C462F4B984204D040F2153123
S315080045602D4801F016FE2846FFF7C0FF05F58053D3
S3150800457001225A60A37C1BB1AB6843F08043AB6051
S31508004580E37C002B34D1637B228A1343E2891343ED
S31508004590EB60237BA26861682846FFF7BBFE637D54
S315080045A01BB1AB6843F48033AB60A37D1BB1AB682A
S315080045B043F40043AB60E37D1B0703F0E043227E30
S315080045C0120502F4E0021343AB65637E023BDBB2DD
S315080045D0012B12D9114B0222C3F89827637E012BAF
S315080045E010D0032B0ED005F500530422DA650DE032
S315080045F0217D2846FFF77EFEC5E7094B0222C3F850
S315080046009827EBE705F580530422DA6523786B6172
S3150800461038BD00BF00C005503881000800E00350CF
S3150800462000D0035010B5044648B123787BB1022B5D
S315080046301ED0032B1FD0012B07D0002309E040F220
S315080046403A21114801F0A5FDEFE77F2301E040F28A
S31508004650FF736278D34013F0010F0ED06278237887
S315080046600121914003EB43031B01084AD15010BDB9
S3150800467040F2FF33EDE73F23EBE740F23D210248E6
S3150800468001F087FDEAE700BF9081000840E003508B
S3150800469010B5044648B123787BB1022B22D0032BF0
S315080046A023D0012B07D0002309E040F25A211348F2
S315080046B001F06FFDEFE77F2301E040F2FF736278B8
S315080046C0D34013F0010F12D0237803EB43031B01E9
S315080046D003F1A04303F57033586C6378D84000F0B3
S315080046E0010010BD40F2FF33E9E73F23E7E740F258
S315080046F05D21024801F04DFDE6E700BF9081000804
S3150800470010B5044648B123787BB1022B22D0032B7F
S3150800471023D0012B07D0002309E040F26E2113486D
S3150800472001F037FDEFE77F2301E040F2FF7362787F
S31508004730D34013F0010F12D0237803EB43031B0178
S3150800474003F1A04303F57033186C6378D84000F082
S31508004750010010BD40F2FF33E9E73F23E7E740F2E7
S315080047607121024801F015FDE6E700BF90810008B7
S3150800477010B50446B8B1237813B96278052A39D03A
S31508004780012B16D0012B19D0022B1CD0022B1FD0BF
S31508004790022B22D0032B25D0032B2DD16378052B92
S315080047A025D10A2010BD4FF44971154801F0F1FCD6
S315080047B0E1E76278012AE5D10320F3E76278032A64
S315080047C0E2D10420EEE76278002ADFD10620E9E785
S315080047D06278052ADCD10720E4E76278072AD9D16E
S315080047E00820DFE76278022AD6D10920DAE74FF0F7
S315080047F0FF30D7E70020D5E74FF0FF30D2E700BFFC
S3150800480090810008F8B504460D46164603784BB164
S31508004810022B1ED0032B1FD0012B01D0002303E04F
S315080048207F2301E040F2FF736278D34013F0010F53
S3150800483014D0304BD3F81033ABB90F2D18D8DFE8A6
S3150800484005F01D1D1D1D1D1D1D1D1D1D1D1D1D1DCF
S315080048501D1D40F2FF33E7E73F23E5E75D212648C4
S3150800486001F097FCE5E76021234801F092FCE4E7B4
S31508004870B421214801F08DFC002700E02F460F2FB8
S315080048801BD81DB1F6B1204602F062FA61780729F5
S315080048901CD82378890003EB43031B0107FA01F2AE
S315080048A00F2000FA01F11548184402F03CF81DB92A
S315080048B0E6B1204602F04CFAF8BDB8210E4801F0E0
S315080048C068FCDEE72046FFF7ADFEDFE72378083908
S315080048D0890003EB43031B0107FA01F20F2000FAD4
S315080048E001F10748184402F01EF8E0E72046FFF7F2
S315080048F099FEE1E700C00350F081000834C0035078
S315080049003CC003502DE9F04105460C46164603788F
S315080049104BB1022B57D0032B58D0012B01D00023C3
S3150800492003E07F2301E040F2FF736A78D34013F077
S31508004930010F4DD0022E01D9042E4FD1524BD3F878
S315080049401033002B50D1002C03DB6B786340032B0C
S3150800495050D8B4F1FF3F53D0002C31DB072C57DC7D
S315080049604FEA8408032707FA08F72A7802FA08F2B2
S315080049703946464801F0D7FF6A7802F0030202FA80
S3150800498008F23946424801F0CEFF16F0050F5AD014
S3150800499025461F2C52D80123AB403E4AC2F8103494
S315080049A016F0060F62D025461F2C5AD80123AB40B5
S315080049B0384AC2F814340123A340374AC2F82034CF
S315080049C02046BDE8F08140F2FF33AEE73F23ACE76F
S315080049D04FF49C71314801F0DCFBABE740F239112A
S315080049E02E4801F0D6FBA9E74FF49D712B4801F03C
S315080049F0D0FBA8E74FF49F71284801F0CAFBA8E747
S31508004A00214BD3F82414687801F09BFF0446A3E7EA
S31508004A10A4F10807BF004FF0030808FA07F82A7838
S31508004A20BA4041461E4801F07EFF6A7802F003024A
S31508004A30BA4041461B4801F076FFA6E774211A489A
S31508004A4001F0A7FBA7E725461F2C05D80123AB4095
S31508004A50114AC2F81034A3E77421134801F099FBF0
S31508004A60F4E77421104801F094FB9FE725461F2CB4
S31508004A7005D80123AB40084AC2F814349BE77421D1
S31508004A80094801F086FBF4E700C0035000C4035050
S31508004A9008C4035000D0035000E00350F08100081A
S31508004AA004C403500CC403505082000838B50446A9
S31508004AB00D4620F07F6323F4702343BB25F07F6304
S31508004AC023F470234BBB184BD3F8302422EA040294
S31508004AD0C3F83024D3F8302425402A43C3F83024B9
S31508004AE0D3F82C242243C3F82C24A3F56033DB6EB9
S31508004AF003F03003202B06D00C4AD36E23F0300384
S31508004B0043F01003D3660A4BC3F8204438BD40F27D
S31508004B108911084801F03DFBD0E74FF4C5710548F7
S31508004B2001F037FBCFE700BF00C00350004000503C
S31508004B3000E00350F081000870B505460C4616469D
S31508004B4003784BB1022B22D0032B23D0012B01D0A3
S31508004B50002303E07F2301E040F2FF736A78D34025
S31508004B6013F0010F18D01D4BD3F81033D3B92846CC
S31508004B70FFF7FEFDB4F1FF3F1AD0B0F1FF3F28D092
S31508004B80844228D1B4F1FF3F14D1204670BD40F2CB
S31508004B90FF33E3E73F23E1E740F29B11104801F0BA
S31508004BA0F8FAE0E74FF4CE710D4801F0F2FADEE7C5
S31508004BB00446E2E786F0010203212846FFF722FEB3
S31508004BC004F1100306FA03F101209840FFF76EFF7F
S31508004BD0DBE70446D9E74FF0FF34D6E700C00350B9
S31508004BE0F0810008074B9B6813F0020FFAD1054BBA
S31508004BF05B6813F0020FF5D1024BDB69002BF1D18C
S31508004C00704700BF00800A5008B50C4B5B6813F06C
S31508004C10010F0CD0094B5B6813F0010F03D0074B4B
S31508004C20DB69002BF6D1054B02221A6108BD4FF449
S31508004C309F71034801F0ADFAECE700BF00800A5007
S31508004C40B082000808B5FFF7CDFF034B03F5805186
S31508004C5001224A601A6108BD00800A5008B5054B52
S31508004C605B68012B00D008BDFFF7CEFF024B01227F
S31508004C705A60F8E700800A5000A00A5010B50446AA
S31508004C80FFF7B0FF084B5B68012B05D0237843B1CB
S31508004C900122054BDA6010BDFFF7E0FFFFF7A2FF20
S31508004CA0F4E70022F5E700BF00800A5038B505464C
S31508004CB00C4602F0B9F8DDB92378D3B1012362684E
S31508004CC012B1127843EAC2036278A2B102221343F0
S31508004CD0A26812B1127843EA8213E2786AB1042212
S31508004CE01343226912B1127843EA4223044A9364B1
S31508004CF038BD0023E3E70022E9E70022F0E700BF1A
S31508004D0000800A5010B50446104B984214D003F59B
S31508004D108043984210D003F5804398420CD003F59F
S31508004D208043984208D003F58043984204D04FF454
S31508004D301571074801F02DFA236B13F0010F03D004
S31508004D40236913F0400FF7D110BD00BF008004504F
S31508004D507883000810B504460E4B984214D003F524
S31508004D608043984210D003F5804398420CD003F54F
S31508004D708043984208D003F58043984204D04FF404
S31508004D801B71054801F005FA236B13F0020FFBD1DE
S31508004D9010BD00BF008004507883000810B5044693
S31508004DA00F4B984214D003F58043984210D003F570
S31508004DB0804398420CD003F58043984208D003F507
S31508004DC08043984204D040F27F21064801F0E1F979
S31508004DD0236B012B03D004F580540123236310BDF4
S31508004DE0008004507883000810B504460F4B98429B
S31508004DF014D003F58043984210D003F580439842B7
S31508004E000CD003F58043984208D003F580439842B6
S31508004E1004D040F29221064801F0BBF9236B012B1E
S31508004E2002D104F50054236310BD00BF008004506E
S31508004E307883000810B50446134B984214D003F53E
S31508004E408043984210D003F5804398420CD003F56E
S31508004E508043984208D003F58043984204D040F234
S31508004E60A5210A4801F095F9236B13F0010F05D027
S31508004E702046FFF747FF0123E36010BD40F2A72154
S31508004E80024801F086F9F3E70080045078830008A9
S31508004E9038B505460C46404B984213D003F5804377
S31508004EA098420FD003F5804398420BD003F5804310
S31508004EB0984207D003F58043984203D08A213748A1
S31508004EC001F067F92846FFF78FFF2846FFF742FFEC
S31508004ED0A37A002B4CD00823E27A002A4AD0102263
S31508004EE01343227B002A47D020221343627B002AE1
S31508004EF044D040221343A27B002A41D08022134388
S31508004F00E27B002A3ED04FF480621343227C002ABB
S31508004F103AD04FF400621343627C002A36D04FF42D
S31508004F2080321343A27C9AB34FF40032134322789B
S31508004F301343627843EA0223626843EA82436B605A
S31508004F402846FFF72BFF00236B62237A627A43EA2F
S31508004F508203E27CF2B110221343AB602846FFF7C6
S31508004F60D1FE2846FFF740FF2846FFF7F3FE38BD77
S31508004F700023B1E70022B3E70022B6E70022B9E72B
S31508004F800022BCE70022C0E70022C4E70022C8E7E7
S31508004F900022CBE70022DFE700800450DC8300080C
S31508004FA070B504460D4616461F2906D856B104F5AF
S31508004FB080540123AB40236070BD9121034801F062
S31508004FC0E8F8F3E704F50054F3E700BFCC7E0008E1
S31508004FD008B5054802F0B3FC00B908BD40F2CB118C
S31508004FE0024801F0D6F8F8E7FC8400084084000877
S31508004FF010B58AB0EC46194C0FCCACE80F000FCCB4
S31508005000ACE80F0094E803008CE80300144BD3F8CF
S315080050104C3113F4002F05D0124B1C88FF2C05D9F0
S315080050208C2403E00E4BD3F85041E4B28DF81940B6
S31508005030FEF78EF8241803D4FF2C02DDFF2400E0C7
S3150800504000248DF818400848FBF76CFC6846FDF705
S315080050503DFF3220FEF782F80AB010BDBC84000876
S315080050600080E00F0001E00FC017530208B50248A0
S31508005070FEF752F908BD00BF00B4C40408B50248DB
S31508005080FEF7EEF908BD00BFC0EA210110B5FEF72C
S31508005090F5F84E4C236F23F0070343F00303236709
S315080050A00020FEF711F9236F23F474432367484B56
S315080050B0D3F8FC3013F0807F75D1464B0022C3F835
S315080050C08020424CD4F8203123F0070343F0020332
S315080050D0C4F82031D4F8283123F0070343F002033B
S315080050E0C4F82831D4F8803123F0030343F00103D0
S315080050F0C4F88031D4F8903223F0030343F0010357
S31508005100C4F89032D4F8403123F0030343F0010386
S31508005110C4F84031D4F8603123F0030343F00103A7
S31508005120C4F86031D4F8403223F0030343F0010396
S31508005130C4F84032D4F8003223F0070343F00103E1
S31508005140C4F80032D4F8083223F0070343F0010309
S31508005150C4F80832D4F8503223F0030343F00103AD
S31508005160C4F85032D4F8703223F0030343F0010335
S31508005170C4F87032D4F8203223F0070343F0010351
S31508005180C4F82032FDF788FE4FF0E022136943F099
S3150800519004031361D4F8603223F0070343F00103D4
S315080051A0C4F8603210BD0A4BD3F8FC2022F0807296
S315080051B0C3F8FC20074A0021C2F88010D3F8FC2067
S315080051C042F08072C3F8FC207BE700BF00800050E5
S315080051D000ED00E00090005008B50B4802F0AFFB68
S315080051E058B9FFF705FFFFF741FFFFF747FFFFF73E
S315080051F0EFFEFFF74BFF002008BD40F236310348AB
S3150800520000F0C7FFEDE700BFF484000840840008FB
S3150800521000B583B0094B93E803000090ADF804107D
S31508005220090C8DF806106846FEF74AFA0920FEF7BB
S3150800523085FA002003B05DF804FB00BFE48400088B
S3150800524010B500F095FB044608B1204610BD00F0E5
S3150800525023FC02F029FA4FF4167303FB00F000F55D
S31508005260742000F23F200B4BA3FB0030800C0A4B46
S31508005270186000230BE0084A1068084941F8230023
S31508005280106807490A6802440A600133DBB2092B31
S31508005290F1D9DAE783DE1B4320140020F41300203B
S315080052A0F013002008B5044B01221A7002F02BFCFB
S315080052B0024B186008BD00BF67140020EC130020DD
S315080052C010B502F0F1F9044602F001FB844200D859
S315080052D010BD02F024FC0028FAD0034A1060034BE4
S315080052E001221A70F4E700BFEC13002067140020AF
S315080052F02C4B1B7803B9704770B502F004FC2A4B97
S315080053001B68C01A294B18601B68002B3ED0274B18
S315080053101B68264C236002F0C7F94FF4167303FB8B
S3150800532000F000F5742000F23F20214BA3FB00306B
S31508005330850C2368B3EB904F2AD81C4B1B68AB42ED
S315080053402BD81C4803781C4C54F82320174D296881
S31508005350511A1A4E3268521A3260296844F82310D4
S3150800536009321749A1FB0242D208164C22600133C2
S31508005370DBB20370A1FB0312D20802EB8202A3EB95
S3150800538042030370074B00221A7070BD0123C0E761
S31508005390C7210D4800F0FDFECFE7024B00221A7028
S315080053A0F3E700BF67140020EC1300201C1400204C
S315080053B083DE1B4368140020F4130020F01300203A
S315080053C0CDCCCCCC2014002020850008014B1868D1
S315080053D0704700BF20140020F8B503212D2000F0E7
S315080053E017F90F4B4FF480125A660E4C04F5005508
S315080053F00D4F6F6704266E672F672E672D2000F006
S31508005400F9F82D2000F094F804F580535F675E677D
S315080054104FF00072AA624FF480529A62F8BD00BF3C
S31508005420009000500040005A010000A0024603E028
S315080054300023184663B95AB1064B9B6D13F0050F46
S31508005440F6D0054B1B780BB10023F2E70123F0E7F2
S31508005450704700BF0040005A6914002010B5184B69
S315080054601C6F14F0040111D003F5005211670821CE
S3150800547091629B6D13F0010F13D000F083F900F0D1
S3150800548061F9012002F016F902F04DFB14F0010350
S315080054900AD114F0005301D00A4A1367002C0ADB1C
S315080054A010BDFFF70DFFE8E7064A1367FFF720FF71
S315080054B000F048F9EDE704F00044024B1C67EFE7FB
S315080054C00040005A0060005A002808DB0901C9B2EA
S315080054D000F1604000F5614080F80013704700F065
S315080054E00F000901C9B2014B1954704714ED00E0C9
S315080054F0002807DB00F1604000F5614090F80003E2
